{
  "contractName": "MailApplication",
  "abi": [
    {
      "constant": false,
      "inputs": [
        {
          "name": "receiver",
          "type": "string"
        },
        {
          "name": "message",
          "type": "string"
        },
        {
          "name": "sender",
          "type": "address"
        }
      ],
      "name": "sendMail",
      "outputs": [],
      "payable": false,
      "stateMutability": "nonpayable",
      "type": "function"
    },
    {
      "constant": true,
      "inputs": [
        {
          "name": "sender",
          "type": "address"
        }
      ],
      "name": "getIndices",
      "outputs": [
        {
          "name": "",
          "type": "uint256[]"
        }
      ],
      "payable": false,
      "stateMutability": "view",
      "type": "function"
    },
    {
      "constant": true,
      "inputs": [
        {
          "name": "index",
          "type": "uint256"
        },
        {
          "name": "acount",
          "type": "address"
        }
      ],
      "name": "getMailAt",
      "outputs": [
        {
          "name": "message",
          "type": "string"
        },
        {
          "name": "sender",
          "type": "address"
        }
      ],
      "payable": false,
      "stateMutability": "view",
      "type": "function"
    }
  ],
  "bytecode": "0x608060405234801561001057600080fd5b50610897806100206000396000f3fe608060405260043610610057576000357c0100000000000000000000000000000000000000000000000000000000900463ffffffff168063977879771461005c578063c2617a2714610102578063ebe5c1e814610209575b600080fd5b34801561006857600080fd5b506100ab6004803603602081101561007f57600080fd5b81019080803573ffffffffffffffffffffffffffffffffffffffff169060200190929190505050610388565b6040518080602001828103825283818151815260200191508051906020019060200280838360005b838110156100ee5780820151818401526020810190506100d3565b505050509050019250505060405180910390f35b34801561010e57600080fd5b5061015b6004803603604081101561012557600080fd5b8101908080359060200190929190803573ffffffffffffffffffffffffffffffffffffffff16906020019092919050505061041f565b60405180806020018373ffffffffffffffffffffffffffffffffffffffff1673ffffffffffffffffffffffffffffffffffffffff168152602001828103825284818151815260200191508051906020019080838360005b838110156101cd5780820151818401526020810190506101b2565b50505050905090810190601f1680156101fa5780820380516001836020036101000a031916815260200191505b50935050505060405180910390f35b34801561021557600080fd5b506103866004803603606081101561022c57600080fd5b810190808035906020019064010000000081111561024957600080fd5b82018360208201111561025b57600080fd5b8035906020019184600183028401116401000000008311171561027d57600080fd5b91908080601f016020809104026020016040519081016040528093929190818152602001838380828437600081840152601f19601f820116905080830192505050505050509192919290803590602001906401000000008111156102e057600080fd5b8201836020820111156102f257600080fd5b8035906020019184600183028401116401000000008311171561031457600080fd5b91908080601f016020809104026020016040519081016040528093929190818152602001838380828437600081840152601f19601f820116905080830192505050505050509192919290803573ffffffffffffffffffffffffffffffffffffffff1690602001909291905050506105cd565b005b6060600160008373ffffffffffffffffffffffffffffffffffffffff1673ffffffffffffffffffffffffffffffffffffffff16815260200190815260200160002080548060200260200160405190810160405280929190818152602001828054801561041357602002820191906000526020600020905b8154815260200190600101908083116103ff575b50505050509050919050565b6060600080600090506000600160008673ffffffffffffffffffffffffffffffffffffffff1673ffffffffffffffffffffffffffffffffffffffff168152602001908152602001600020905060008090505b818054905081108015610482575082155b156104b95786828281548110151561049657fe5b906000526020600020015414156104ac57600192505b8080600101915050610471565b508115156104c357fe5b6000868154811015156104d257fe5b90600052602060002090600202016000016000878154811015156104f257fe5b906000526020600020906002020160010160009054906101000a900473ffffffffffffffffffffffffffffffffffffffff16818054600181600116156101000203166002900480601f0160208091040260200160405190810160405280929190818152602001828054600181600116156101000203166002900480156105b95780601f1061058e576101008083540402835291602001916105b9565b820191906000526020600020905b81548152906001019060200180831161059c57829003601f168201915b505050505091509350935050509250929050565b6105d5610796565b60408051908101604052808481526020018373ffffffffffffffffffffffffffffffffffffffff168152509050600160006002866040518082805190602001908083835b60208310151561063e5780518252602082019150602081019050602083039250610619565b6001836020036101000a038019825116818451168082178552505050505050905001915050908152602001604051809103902060009054906101000a900473ffffffffffffffffffffffffffffffffffffffff1673ffffffffffffffffffffffffffffffffffffffff1673ffffffffffffffffffffffffffffffffffffffff16815260200190815260200160002060008054905090806001815401808255809150509060018203906000526020600020016000909192909190915055506000819080600181540180825580915050906001820390600052602060002090600202016000909192909190915060008201518160000190805190602001906107459291906107c6565b5060208201518160010160006101000a81548173ffffffffffffffffffffffffffffffffffffffff021916908373ffffffffffffffffffffffffffffffffffffffff16021790555050505050505050565b604080519081016040528060608152602001600073ffffffffffffffffffffffffffffffffffffffff1681525090565b828054600181600116156101000203166002900490600052602060002090601f016020900481019282601f1061080757805160ff1916838001178555610835565b82800160010185558215610835579182015b82811115610834578251825591602001919060010190610819565b5b5090506108429190610846565b5090565b61086891905b8082111561086457600081600090555060010161084c565b5090565b9056fea165627a7a723058209794d4b84fde7278ca2f6cb530d39a990ea72939c29f2d612da52ecd412d0ec00029",
  "source": "pragma solidity >=0.4.21 <0.6.0;\n\ncontract MailApplication {\n\n    struct Mail {\n        string message;\n        address sender;\n    }\n\n    Mail[] private allMail;\n\n    // Maps an address to an array of indices, where each index corresponds with\n    // a position in the allMail array contained by the inbox of the address.\n    mapping(address => uint256[]) addressToIndices;\n\n    mapping(string => address) usernameToAddress;\n\n    function sendMail(string memory receiver, string memory message , address sender) public {\n        Mail memory mail = Mail({message: message, sender: sender});\n\n        addressToIndices[usernameToAddress[receiver]].push(allMail.length);\n        allMail.push(mail);\n    }\n\n    // We can't return an array of Mail (which would be perfect to represent an inbox,)\n    // because it is still an \"experimental type.\" This means that the client will have\n    // to call getMailAt for each element in the returned array.\n    function getIndices(address sender) external view returns (uint256[] memory) {\n        return addressToIndices[sender];\n    }\n\n    function getMailAt(uint256 index , address acount) external view returns (string memory message, address sender) {\n        bool isInInbox = false;\n        uint256[] storage indices = addressToIndices[acount];\n\n        // Linear search O(n) to check if operation is valid. Can do binary search\n        // O(log n) because we know that the array is sorted during insertion. We\n        // could even change how we store the indices per user to a bitset, and get\n        // O(1) checking.\n        for (uint256 i = 0; i < indices.length && !isInInbox; i++) {\n            if (indices[i] == index) {\n                isInInbox = true;\n            }\n        }\n\n        // If the requested mail was not sent to the person requesting the mail,\n        // this assertion will fail.\n        assert(isInInbox);\n\n        // We cannot return structs, but we can return\n        return (allMail[index].message, allMail[index].sender);\n    }\n\n}\n",
  "sourcePath": "E:/RSC/DecentralizedComputer/Robby_Yan_mail_web3/contracts/MailApplication.sol",
  "compiler": {
    "name": "solc",
    "version": "0.5.0+commit.1d4f565a.Emscripten.clang"
  },
  "schemaVersion": "3.0.2",
  "updatedAt": "2019-03-07T19:38:42.086Z",
  "devdoc": {
    "methods": {}
  },
  "userdoc": {
    "methods": {}
  }
}